:020000041000EA
:1000000000B5324B212058609868022188439860DF
:10001000D860186158612E4B002199600221596106
:100020000121F02299502B49196001219960352056
:1000300000F044F80222904214D00621196600F024
:1000400034F8196E01211966002018661A6600F04E
:100050002CF8196E196E196E052000F02FF8012189
:100060000842F9D1002199601B49196000215960AB
:100070001A491B48016001219960EB211966A021F2
:10008000196600F012F800219960164914480160C1
:100090000121996001BC002800D000471248134993
:1000A000086003C880F30888084703B5996A0420EC
:1000B0000142FBD001200142F8D103BD02B5186610
:1000C0001866FFF7F2FF186E186E02BD00000240BE
:1000D000000000180000070000035F00212200005C
:1000E000F4000018222000A00001001008ED00E03C
:1000F00000000000000000000000000074B24E7A12
:1001000000200420F7010010C3010010C5010010F9
:10011000C1010010C1010010C1010010C101001097
:10012000C1010010C1010010C1010010C701001081
:10013000C1010010C1010010C9010010CB01001065
:10014000CD010010CD010010CD010010CD01001037
:10015000CD010010CD010010CD010010CD01001027
:10016000CD010010CD010010CD010010CD01001017
:10017000CD010010CD010010CD010010CD01001007
:10018000CD010010CD010010CD010010CD010010F7
:10019000CD010010CD010010CD010010CD010010E7
:1001A000CD010010CD010010CD010010CD010010D7
:1001B000CD010010CD010010CD010010CD010010C7
:1001C00000BE00BE00BE00BE00BE00BE00F04BF888
:1001D000103800BEF2EB8871F892001014930010F2
:1001E0003402001090A31AE700202149086006C8D5
:1001F00081F3088810471F48006800282FD10DA4FC
:100200000ECC002902D000F012F8F9E71A491B4A77
:10021000002000E001C19142FCD1194988471949E9
:1002200088471949884700BEFDE701C901C29A42C3
:10023000FBD3704714930010C0000020740B002003
:10024000C89D00100000042000000420C89D00107C
:1002500000100420001004200000000070470B482C
:1002600003F098FA0047EFF30580C0B27047000032
:1002700008ED00E0000000D0780B002054190020A9
:10028000E51800105D030010051A00105756000015
:1002900006005250ABB36053508700100600525016
:1002A000861C030260870010060052505422A29D53
:1002B0006887001005005250DE65F468C89D001084
:1002C000F8B5C0460448054B10B5834203D0044B33
:1002D000002B00D0984710BD740B0020740B002039
:1002E0000000000006480749091A8B10C90FC918F9
:1002F00010B5491003D0044B002B00D0984710BD17
:10030000740B0020740B00200000000010B5074C97
:100310002378002B09D1FFF7D5FF054B002B02D026
:10032000044800E000BF0123237010BD800B0020B3
:100330000000000058830010054B10B5002B03D0BF
:100340000449054800E000BFFFF7CCFF10BDC046E0
:1003500000000000840B002058830010F0B5D64642
:100360004F464646C0B504F079FC4449444806F07F
:1003700011FD0321042000F073FA0321052000F091
:100380006FFA00220121042000F082FA00220121EC
:10039000052000F07DFA032303220321002000F052
:1003A0004FF93849384800F039FA00F085F83748F5
:1003B00004F040FB364B00249846364B0025994606
:1003C000354B364F9A46364E00F002F9354904F067
:1003D00021F904F0BBF9344904F019F9314904F06A
:1003E00016F9324904F013F9011C201C04F00CF931
:1003F0002900041C380004F025FC00F0B1F82A495B
:1004000004F008F904F0A2F9294904F000F904F015
:1004100061F902000B00300004F014FC00F06AF8EF
:10042000214904F0F7F804F091F91F4904F0EFF8BE
:1004300004F050F902000B00404604F003FC00F009
:10044000C7F8184904F0E6F804F080F9194904F0F7
:10045000DEF804F03FF902000B00484604F0F2FB1E
:10046000201C04F037F902000B00504604F0EAFBB0
:10047000FA208000013500F04DFEA5E7801A060045
:100480000C030020CDCC4C40CDCCCC3D588300108B
:100490008C8300109C830010AC83001068830010D4
:1004A0007C8300100000C84200007A4400006145CF
:1004B000002474490050C34700B585B06A46002344
:1004C00093810F339373084B08481978012303AACB
:1004D0000093023306F0B2FC032802D0044807F070
:1004E00099F805B000BDC0466C1600200C03002032
:1004F000C0830010022330B5154D83B001AC01223A
:1005000021002868237007F055FA012802D011480D
:1005100007F080F8012000F0FDFD0222210028688C
:1005200007F03CFA022802D00B4807F073F8237852
:1005300060781B021843C00804F0A5F88121C905A2
:1005400004F068F8054904F062F803B030BDC04615
:100550006C160020E0830010F883001000007A443D
:10056000042330B5154D83B001AC01222100286869
:10057000237007F01FFA012802D0114807F04AF84B
:10058000012000F0C7FD02222100286807F006FACA
:10059000022802D00B4807F03DF8237860781B0250
:1005A000184300B204F074F8074B196804F032F8ED
:1005B000064904F02FF803B030BDC0466C16002089
:1005C000E0830010F88300108816002000007A44B1
:1005D000032330B5154D83B001AC012221002868FA
:1005E000237007F0E7F9012802D0114807F012F84C
:1005F000012000F08FFD02222100286807F0CEF9CB
:10060000022802D00B4807F005F8237860781B0217
:10061000184300B204F03CF8074B196803F0FAFFE6
:10062000064903F0F7FF03B030BDC0466C1600204A
:10063000E0830010F88300107016002000007A4458
:10064000F0B557464E464546DE46E0B599B00393B1
:10065000002307AC23800F33A3705E4B0E00197884
:1006600001235D4F050002920093220038000233FF
:1006700006F0E4FB032802D0584806F0CBFF012D1A
:1006800002DD574806F0C6FF564B1D60564B1E60F4
:100690009B46564BB6001B689946554B98461B68BF
:1006A000191C9A46534BF05803F0B1FF5249061CEF
:1006B00003F0B0FF04F04AF84F4903F0A8FF011C13
:1006C000484603F0DBFF00286DD1311C484603F09B
:1006D000CFFF4A49002861D0484603F098FF061C26
:1006E000474B311C1B68181C994603F0C7FF0028B4
:1006F00000D04E46434B44491E60301C03F08AFF35
:10070000424B51461860301C03F084FF03F0E2FFB7
:1007100002000B003E483F4903F0EDFA03F00EFCE7
:1007200003F09EFB052380B22370030A6370294BFC
:10073000A07019780123220000933800023306F0DC
:100740007DFB032802D0254806F064FF5B461A684B
:10075000039B6D03D2022A43DB001A43029B38003D
:10076000DD012A43072500232A43237093B21B0A85
:100770006370184BA2701978012322000093023392
:1007800006F05CFB032802D0144806F043FF19B0C2
:100790003CBC90469946A246AB46F0BD301C03F0E7
:1007A00036FF061C9CE7484603F094FF0490059131
:1007B000301C03F08FFF049A059B009001911649AD
:1007C000200002F0A3FF200006F024FF43461B6830
:1007D0009A467AE76C1600200C030020C0830010B4
:1007E000588400107816002074160020841600200B
:1007F000801600204802002000007A4400020047D2
:100800007C160020881600200000A04170160020F1
:10081000F168E388B5F8A43F188400100A4B10B5BE
:1008200018600A4B19600A4903F0F4FE03F052FF06
:100830000B0002000749084803F05DFA03F01CFBB7
:10084000064B186010BDC04680160020841600209C
:1008500000FE7F47B5F8A43FF168E3887C160020CE
:10086000094A830094464022634410B51C68C000C6
:100870006240C02414408022520113431C60034B89
:100880009C466044416010BD04C0014000400140EE
:100890000A4B80009C4604236044002901D00821B3
:1008A0000C23002A00D10B00026853400C221A408E
:1008B00080235B01184302607047C04604C00140BA
:1008C000F8B5CE464746914680B5EFF3108772B62D
:1008D000124E3368002BFCD0BFF35F8FCB08C55C92
:1008E0000724C218280001230C409446E0401A0057
:1008F0000240904603420DD1A34062462B43137041
:10090000BFF35F8F4346336087F310880CBC90467B
:100910009946F8BD484601F077F8C0462C0100D052
:10092000F8B54746CE46884680B5EFF3108C72B6D0
:10093000214D2C68002CFCD0BFF35F8F9A422DD83C
:10094000D408055D071907242E001440E640F1077E
:100950001ED507218946063908E0D408055D071928
:100960004C462E001440E640314211D001329342F1
:10097000F3D201204042BFF35F8F00220E4B1A607A
:100980008CF31088002811DB0CBC90469946F8BD0A
:100990000123A3401D4310003D70ECE7BFF35F8FC0
:1009A00000232B608CF31088012040424346002B2B
:1009B000EAD0089801F028F82C0100D00021044B5F
:1009C000044ABFF35F8F02C39342FAD17047C04617
:1009D000000100D0800100D0044A1078431CDBB233
:1009E000172B00D9102313707047C04658020020FF
:1009F00000B5054B83B00100009318221F23034864
:100A0000FFF78EFF03B000BD94840010500F00204C
:100A1000024B18688007C00F7047C04600C00640F0
:100A200083680B4810B58446614462440901120191
:100A30009A18591854684B6801209C4201D802D07A
:100A40000020C0B210BD12680B689A42F9D8F7E7CF
:100A5000FFFFFF0F40BF002000217047F8B5DE46C2
:100A600057464E464546E0B51F000DAB1B780500C6
:100A70009B460C9B1600002B45D0414A0C9B94468C
:100A8000DBB2AA689A460C9B2C68634494461B010F
:100A90000A9A63449A600B9A1E60DA600C9A5F604F
:100AA00094460C9B00225B006344033B98462368FA
:100AB00043449A705A701A70637B9946002B43D056
:100AC00052461900A06863689847226800282BD016
:100AD0004B465B004B44033BD1188C46414648468D
:100AE00051188870D35C002B46D153466246137070
:100AF0004B460C986373814528D03CBC9046994680
:100B0000A246AB46F8BD0268947B002C32D0116837
:100B100063008C461B196344033B5B789373002B83
:100B200000D1D3730C94A8E74346D1184B465046E6
:100B30005B004B44033BD31898704046125C002A7C
:100B400000D05A704B460B705346637332003B0023
:100B5000287D00F01DFC061E06D05B46002B03D14D
:100B60005146286800F080FE0E9B002B06D00C98A2
:100B70001E70C2E70020C0E74B70B6E70C98BCE7D8
:100B8000FFFFFF0FF0B5DE464E46574645460023B1
:100B9000E0B58DB00A936B4B8200D3580B90994609
:100BA00000239B464B46079300F092FB079C0600F0
:100BB0000F006268EFF3108572B61368002BFCD04B
:100BC00022000794BFF35F8F2468637B9946002B54
:100BD00067D092685C4B90464B441B019844434657
:100BE0001A685B6810001900801BB94100295FDD9D
:100BF0000B9800F0CDFB00230026984600279A466C
:100C0000079C6368BFF35F8F5A461A6085F31088AC
:100C10005346002B08D10028C6D10DB03CBC9046ED
:100C20009946A246AB46F0BD0A9B414618024B4688
:100C30001843D047089009916268EFF3108572B6A7
:100C40001368002BFCD00794BFF35F8F0899099AB3
:100C5000002A48DB114303D0079B1B69002B5DD1A1
:100C6000079B1B68DA7B002A07D051008A18196895
:100C70008C4649466244033A51704A46DA734B4601
:100C8000079A013BD168CA5C0132CA545B46079A95
:100C900013615368BFF35F8F5A461A6085F310885B
:100CA00082E700230026984600279A460020A7E7FF
:100CB000002901D100289BD10121200000F036FD40
:100CC00043461E685F689B68079A9A464346DB68FE
:100CD0009846D3684B44013B1B780A931B0203439D
:100CE000136100208CE72369002BB9D033003C004E
:100CF0005B1A94411A002300A74219D89F421BD0C7
:100D000059460491012103914946029141460191BE
:100D1000514607980091FFF7A1FEB7E700F0D8FA17
:100D2000089A099B06000F0092197B419942E5D968
:100D300001225242D317E3E79642E1D901225242FF
:100D4000D317DDE73C160020FFFFFF0FF8B557462D
:100D50004E46DE4645469146E0B504009A46426856
:100D6000EFF3108872B61368002BFCD0BFF35F8FCF
:100D70002668B57B002D4AD06F0033687F19033F8A
:100D8000DB195B78B373002B00D1F373354B002272
:100D9000E918A36809019C464B4661440B60534621
:100DA0004B60314BCA608B603368DB199A705A70A4
:100DB0001A70737B9B46002B44D02A001900B06840
:100DC00073689847326800282FD05B4658465B000E
:100DD0005B44D719033BB870D118D35C002B3ED1CC
:100DE0005B460D7073735D452DD00026E368626825
:100DF0005B19013B1B78BFF35F8F0021116088F303
:100E000010880020002E0AD11802284307E06368EA
:100E1000BFF35F8F1D6088F31088012040423CBC07
:100E200090469946A246AB46F8BD5B465B005B44E4
:100E3000033BD3189D70D119D25D002A00D05A709F
:100E40005B460B7075734A465346207D00F0A0FA4E
:100E5000061ECAD02900206800F006FDC6E77B7098
:100E6000BEE7C046FFFFFF0F550A001070B5184CD3
:100E70002368002B00D070BD032000F01DFA032072
:100E800000F0E8FA1349032000F03CFA182003F0C0
:100E9000A9FC0500FFF7A0FD0F4B2A009C4660440B
:100EA00080000E496860102000F04AFB1021286085
:100EB000102003F09BFC0121A860102003F096FC99
:100EC00003232B75064BE860DD602560D3E7C04641
:100ED0007C0F0020850B001040000034210A001018
:100EE0003C160020014B18687047C0467C0F00205C
:100EF000F0B5DE464E4645465746E0B585B001930F
:100F000010AB1B780600039300239B469846009283
:100F10007268EFF3108A72B61368002BFCD0BFF32F
:100F20005F8F3568AC7B002C00D184E067002B68B4
:100F30003F19033FDB195B78AB73002B00D1EB73D8
:100F4000B268574B94460099019AE3181B01634419
:100F500019605A600E9A9A600F9ADA6042462B68BE
:100F6000DB199A705A701A706B7B9946002B00D16E
:100F70007FE022001900A8686B6898472A6800285B
:100F80006BD04B4648465B004B44D719033BB870C7
:100F9000D118D35C002B00D07EE04B460C706B73F5
:100FA0004C4567D0F3681B19013B18787368BFF391
:100FB0005F8F42461A608AF310885B46002B08D187
:100FC0000002204305B03CBC90469946A246AB4681
:100FD000F0BD039B002B61D00E9B00200F9998471A
:100FE000030004000D000B4358D000290DDA0098CF
:100FF000019902000B00121BAB41994215D823D076
:1010000000920193039B9B4682E700F061F9020086
:101010000B00A4185D412000290000900191AB4213
:1010200003D8EFD100998A42ECD901235B42DC1747
:1010300000930194E6E77368BFF35F8F1C608AF347
:10104000108801204042BDE700999142D8D9012380
:101050005B42DC1700930194D4E74B465B004B44A2
:10106000033BD3189C70D119D25D002A10D14B4696
:101070000B706C73307D009A019B00F089F98346F8
:10108000002800D18EE72100306800F0EDFB89E7F1
:101090005A704B460B70ECE77B707EE7002091E7BF
:1010A000FFFFFF0F70B542680400EFF3108572B6C2
:1010B0001368002BFCD0BFF35F8F2068CAB2437B5C
:1010C00093420AD0FF230B405E00F3180668B44633
:1010D0006344033B9B78002B13D0E668FF23B446A0
:1010E0000B406344013B090A1E78C9B28E420DD001
:1010F00000206368BFF35F8F00221A6085F31088B9
:1011000070BD22698A42F3D12361F1E7110000F03A
:10111000ABFBEEE7F8B5040000F0DAF8FA220600BF
:101120000F00200000230021920003F04DFA8019E7
:10113000794104000D008F422FD82CD0062676422C
:10114000F71736196F41AF422ED90026002700F05D
:10115000BFF832003B00121A8B41002B07DC04D091
:101160002900200000F0BEF8F8BD002AF8D0114B8D
:10117000320018683B00FFF7E9FD0028F0DB38007B
:101180000D4A536A984204D8916A8E42E8D998422F
:10119000E6D120BFF5E78642D0D901246442E517A5
:1011A00007267642F717D2E7AF42D0D1A642CCD875
:1011B000CDE7C0467C0F00200040054070B50E4DC5
:1011C00002000B00060028680C00FFF7BFFD011E9F
:1011D00003DD20BF2868FFF765FF084B0020596A30
:1011E0008C4203D89B6A0130B34200D370BD641AAD
:1011F000611E8C41E0B2F9E77C0F00200040054001
:10120000F0B5D6464F464646C0B5EFF305833F22BC
:10121000134018001038EFF3108C72B6204D2A6876
:10122000002AFCD0BFF35F8F0122110081401D4CCA
:10123000884661631C4917000E788A463100C14018
:101240000F400A4215D019498200646A51588C42F5
:1012500019D3174BD25843469E4353461E70BFF3D3
:101260005F8F00232B608CF31088002A06D09047F4
:1012700004E0BFF35F8F2F608CF310881CBC904696
:101280009946A246F0BD0B4A9B00904643441A681B
:101290001A60BFF35F8F00232B608CF31088EDE79B
:1012A000280100D000400540691600205416002097
:1012B000400F0020D03F054010B50100024A03480E
:1012C000FFF7FEFA10BDC046B88400106716002074
:1012D000034B596A0A00986A596A8A42FAD17047E0
:1012E00000400540064A536A9942FCD807D1044B96
:1012F00002E05A6A914202D19A6A8242F9D3704757
:101300000040054070B504000D00EFF3108672B682
:101310001A4A1368002BFCD0BFF35F8F002D1BD03F
:10132000200000F065FD164981420AD0200000F03F
:1013300067FD0121200000F041FD0123A340114A77
:101340001360114BA400E550BFF35F8F00220B4BDD
:101350001A6086F3108870BD0B4BA200D550012295
:10136000A2400A4920000B7893430B70044900F017
:1013700071FD0021200000F021FDE5E7280100D0EB
:101380000112001038600540400F0020691600204F
:10139000F0B5CE46474680B52A4C616A0D00A66A74
:1013A000616AA942FAD18B4207D804D001200CBC53
:1013B00090469946F0BDB242F8D9EFF3108872B664
:1013C000214C21680029FCD0BFF35F8F01258540A7
:1013D0001C4C1E4E6563E9B28C46317889466146E5
:1013E0004F4639433170011D89000A511849800068
:1013F0004350216A002029420CD02000616A0C0071
:10140000876A416AA142FAD18B4202D80AD1BA4214
:1014100008D90020BFF35F8F00220B4B1A6088F3BE
:101420001088C4E7074B4F461D625D6363469F43C8
:1014300001203770BFF35F8F0022034B1A6088F3DF
:101440001088B4E700400540280100D0691600204C
:101450005416002010B5EFF3108472B60A490B68D9
:10146000002BFCD0BFF35F8F01238340074A08485D
:10147000136202789A430270BFF35F8F00230B6000
:1014800084F3108810BDC046280100D000400540FC
:1014900069160020024B9C46614489000160704738
:1014A0004000003410B50400FFF796FA0100200058
:1014B000FFF7F0FFFF232371BFF35F8F10BDC0461E
:1014C00010B504000120FFF793FA01002000FFF798
:1014D000E1FFBFF35F8F10BD70B505000E00140073
:1014E000002924D0002A24D080686B689847296896
:1014F00000280ED063001B197200033B9219CB1811
:10150000033A9E7088188A5C002A14D10470300057
:101510000EE073009B196200033B1219CB18033ACB
:101520009C7088188A5C002A00D05A7006702000CF
:1015300070BD0800FCE75A7004703000F8E7C04640
:10154000F0B5C64605000F0000B5102101201600B9
:1015500003F04CF9EBB20400037303214760280049
:10156000984603F043F9002363730133A3734346A2
:10157000FF21E373FE232060A66029402B4206D0A2
:10158000421CFD3B0133137003328B42FAD34B00F4
:1015900059180023401803384370200004BC9046BB
:1015A000F0BDC046F8B5CE46474606000C0080B5F3
:1015B000002907D04D0003686D18033D5A1957786C
:1015C000002F04D120000CBC90469946F8BD79004C
:1015D000C91903398846434459788946002159700E
:1015E000517073683A00210080689847336800287A
:1015F00014D042469A18947059195B5D002B00D0A4
:1016000053700F70270049463000FFF7CBFF3900B9
:1016100002003000FFF760FF0400D3E74246414676
:101620005D19AF709A185B5C002B00D06B70147062
:10163000E9E7C046F0B557464546DE464E46E0B5BA
:101640000D006B0001685B19DF1E0400C85D83B0EC
:101650000192CA1900284CD043001B18033BCB1839
:101660005E78B446002E16D1019E002E3ED1E67B58
:10167000002E04D073009B19CB18033B5D70E573FB
:1016800000282FD10023537003B03CBC90469946EC
:10169000A246AB46F0BD72006244033A89184A780C
:1016A000904600224A7091465A7001003200200094
:1016B000FFF712FF43468246002B07D05B002168EC
:1016C0004344033BCB185A78002A16D14246514670
:1016D0002000FFF701FF2168019BCA19002BC6D02B
:1016E0000028CFD043001B18033BCB180021997072
:1016F000C8E7019B002BC5D1B9E75000801803381B
:10170000091848788346484648705870414620007A
:10171000FFF7E2FE594680462000FFF743FF4146AF
:1017200002002000FFF7D8FE8046CFE7F0B54E4616
:101730004546DE465746E0B5467B04007500006826
:10174000AD19033D83B00191415D421900294ED08E
:101750004B005B18033BC3185F78BC46002F18D1C1
:10176000019D002D40D1E57B002D04D06B005B195D
:10177000C318033B5E70E673002931D100233000AB
:101780005370617303B03CBC90469946A246AB4689
:10179000F0BD7A006244033A8018427893460022F2
:1017A000427091465A7020003A00FFF795FE5B4662
:1017B0008046002B07D05B0021685B44033BCB18BD
:1017C0005A78002A17D15A4641462000FFF784FE76
:1017D000019B010020684219002BC4D00029CDD004
:1017E0004B005B18033BC31800209870C6E7019BB1
:1017F000002BC3D1B7E75000801803380918487888
:10180000824648464870587059462000FFF764FEEB
:1018100053468346002B07D05B0021685344033BAB
:10182000CB185A78002A06D1594652462000FFF7B5
:1018300053FE8346C7E7500080180338091848460E
:101840004F784870587051462000FFF745FE390028
:1018500081462000FFF7A6FE494602002000FFF760
:101860003BFE8246E0E7C04670B5040000292CD05C
:10187000437B8B422ED00568480040180338281857
:101880008278002A21D053009B18033BEA5CEE18B3
:101890008A4202D11BE0002A08D053009B18033B68
:1018A000EB185A788A42F6D142785A700023002207
:1018B000837043702000FFF7BDFE617B02002000B3
:1018C000FFF70AFE6073012000E0002070BD43783E
:1018D0003370EBE700221900FFF7ACFE60730120C4
:1018E000F4E7C0462B4B2C4A70B51A602B4A2C4BA0
:1018F0002C491A6010008B689843FBD12A4C2B4B63
:101900009C4209D2013B1D1BAD080135AD002D19CC
:1019100008CC9847AC42FBD100F094F8244A204B05
:101920001A60204A9368DB018033FBD14022214BAF
:10193000214C9A675A671A67DA66204B9C420BD291
:10194000013B1D1BED080135ED002D192000083469
:10195000FFF7A8FDAC42F9D1194C1A4DA168C0227D
:10196000280002F055FFA560FFF728F800F0B2FB51
:10197000FFF77CFA144C154B9C4209D2013B1D1B0E
:10198000AD080135AD002D1908CC9847A542FBD113
:1019900070BDC04600E00040BFCDFFFFFE7F3C00B1
:1019A00000F0004000C00040600B0020700B0020E1
:1019B000FFFFFF0100F00140580B0020600B0020EA
:1019C00000ED00E000000020700B0020740B0020F0
:1019D000094A03001068002805D00849C3188B4243
:1019E00007D21360704706480449C31810608B4241
:1019F000F7D301204042F5E7B00F0020000004209B
:101A00005419002000BEFDE70FB400B5084883B0AC
:101A100003F010F8049B002B07D005A918000191D2
:101A200001F098FE034803F005F800BEFDE7C0464C
:101A3000DC840010EC84001010B50148FFF7E4FFCF
:101A4000F084001030B50C2083B000F071F9FEF77F
:101A5000DFFF00280ED09A4B9A4A1A605A609A60AB
:101A6000DA601A615A619A61DA611A62964A5A62B8
:101A700003B030BD954CA06700F062F90122944B91
:101A80001A60636C012BFCD10322924B1A608F4ABF
:101A9000936B012BFCD1C0228F4B92011A608F4BAC
:101AA0008F491A6010008B689843031EFAD10224F4
:101AB00001218C4A8C480633009400F055F9052327
:101AC0008A4A01218A48009400F04EF9894B5A68ED
:101AD000FF2A02D8802252005A608022784C7D4B27
:101AE00021691201834D1A60002905D0606901F057
:101AF000ABFE01300138FDD1E0217E4B02201A6897
:101B00001140802252012A43116019684840032184
:101B10000140116004219A681142FCD0802280218A
:101B200092012A4309011160802252005A60724BCF
:101B30002361724B5968FF2900D85A6003226F480D
:101B4000634B01211A60020093681942FCD0E02522
:101B500013681D4080235B0103431D6012684A40E7
:101B60000321114019600221644A93681942FCD094
:101B7000802380219B010343090119608021604B70
:101B80004900516063615F4B5A68FF2A00D8596071
:101B900080225D4BE16912015A4D1A60002905D07F
:101BA000606901F051FE01300138FDD1E022554954
:101BB0000B681A4080235B012B431A60802380222C
:101BC0009B012B4312011A6080223E4B52004A6057
:101BD000E3614E4B5968FF2900D85A6080224C4B74
:101BE000216A1201494D1A60002905D0606901F08F
:101BF0002BFE01300138FDD1E02244490B681A4028
:101C000080235B012B431A60802380229B012B439E
:101C100012011A60802380225B004B60294BD202A4
:101C200023623C4B5968914200D25A6080223A4B61
:101C3000616A1201374D1A60002905D0606901F010
:101C400003FE01300138FDD1E02232490B681A4011
:101C500080235B012B431A60802380229B012B434E
:101C600012011A608023DB024B60174B63622B4B1F
:101C70005A68FF2A02D8802252005A608022284BDC
:101C8000A1691201254D1A60002905D0606901F093
:101C9000DBFD01300138FDD1E02220490B681A40FC
:101CA00080235B012B431A60802380229B012B43FE
:101CB00012011A6080235B004B60114BA361D7E6D1
:101CC000540F0020006CDC021BB7000000800040B5
:101CD0003CB0004030B0004000E0004000F0004068
:101CE00000C00040002F68590080024000389C1C52
:101CF00000C0024030800040001BB7003C80004024
:101D0000405973075480004054B000406080004048
:101D100060B000406C8000406CB0004048800040E3
:101D200048B00040014B8000C0587047540F00205D
:101D30008023024A9B000343D36270470080054022
:101D4000AA23064A1B0113602F230549D360054BC4
:101D500019605368002BFCDA7047C046004002400F
:101D600000B0FA0000600240F8B51D0006AB1E7816
:101D700001235B42436000230400836001600C2068
:101D8000170001F061FD4101091A8B01591AC900C0
:101D900009188901380001F057FDC021231D890170
:101DA00019432123A0600B602268002AFCDA082373
:101DB0002D0436032E43E6600B60F8BD01238340FB
:101DC000002904D0034A1360034A13607047034A92
:101DD0001360FBE780E200E000E100E080E100E06A
:101DE00001238340014A13607047C04600E200E0CF
:101DF000024B10309B688000C058704700ED00E037
:101E000070B50D00EFF3108672B60F4A1368002B01
:101E1000FCD0BFF35F8F0D4B10309B6884001B59C3
:101E20000B4A934203D09D4201D0FFF705FE074BBA
:101E30009B681D51BFF35F8FBFF35F8F0022024B82
:101E40001A6086F3108870BD240100D000ED00E018
:101E5000CD010010F0B5DE4657464E464546E0B58A
:101E60000C0083B0EFF3108A72B65F4A1368002B40
:101E7000FCD0BFF35F8F1022914681444A465B4BF2
:101E800096009B689D595A4B98469D4205D0A542A5
:101E900016D0584FEB1B2F2B14D9544B9B689D51D8
:101EA000BFF35F8FBFF35F8F00224F4B1A608AF33F
:101EB000108803B03CBC90469946A246AB46F0BDA4
:101EC0001D00EAE7012383409B465A464A4B1B68A4
:101ED0001A4000925A46494B1A60BFF35F8FFEF7D3
:101EE000C2F90190002803D0814501D0FFF7A4FD7D
:101EF0000123290099438B68A34269D00A0007E0B7
:101F000043001B189B00FB189868A04211D01A00D0
:101F1000062010560028F3DA009B002B05D05A4605
:101F2000374B1A60344B1A60B7E75A46334B1A6086
:101F3000B3E706201856002822DB4200111889005A
:101F40007C188846A1689960E179D97106216156AB
:101F50009971A1797F292BD8A488F91A64052415D1
:101F600044440919E0240905490D240221439980BC
:101F70001218244B9200BF181A781870BA71CBE768
:101F80000198002817D1FF3090711F4890801D4A9A
:101F9000CF1B1078BF109871BB00DB1919015B18BB
:101FA00019025B1819045B185B00DB191370B3E7A7
:101FB000BD210902DBE7154A1549D21A083A500239
:101FC000400D01439980134952080A43DA80A3E780
:101FD000062008560B000028AFDA019A002AEAD141
:101FE0000B004546D3E7C046240100D000ED00E0D9
:101FF000CD0100105C02002000E100E080E100E083
:1020000080E200E06816002000BDFFFF960200207D
:1020100000F0FFFF00F8FFFFF8B5012504000543BD
:10202000FEF721F9EFF3108672B6244A1368002BED
:10203000FCD0BFF35F8F224F8000E11B89108A0024
:1020400052181301D2181302D2181304D3181D4AC0
:102050005B005B1891680958A9421CD00622BA5649
:1020600093421CD01222BA56934222D01E22BA5654
:10207000934220D02A22BA5603219A4210D0124A03
:1020800011781370A171BFF35F8F00220B4B1A60A0
:1020900086F31088F8BD92680C491150EFE70021D3
:1020A0004A005218FF219200BA1891710849918094
:1020B000E5E70121F4E70221F2E7C046240100D060
:1020C0005C02002000ED00E068160020CD01001049
:1020D00000BDFFFFF0B500220324FF27802620006B
:1020E0003D00094B11009C461040C0008540A143B3
:1020F00061440B680132AB43350085402B430B60D4
:10210000202AECD1F0BDC04600E400E09A4200D2A3
:10211000885470477047C046F8B557464E46DE466D
:102120004546E0B51F000A9B05009B460D9B0E002F
:10213000914692469B0718D10B9B0C9A934214D25E
:1021400013000B9AB8469B1A4B444C460F000600EE
:102150001D0022004346013439002020B047AC4224
:10216000F7D1AA4635003E0047460B9B002B38D0DE
:102170009A441C00D04653461A1B5B46013C185D2E
:1021800031003B00A847002CF5D10D9B9B0721D5C2
:1021900043464A469C1A0C9BA3421BD93A009A46D6
:1021A0004F469146E2194B46310020200134A847A2
:1021B0005445F7D343460C99DB1B0133B946002243
:1021C000994203D343464A1E4A44D21A4346904694
:1021D0000133984440463CBC90469946A246AB46E3
:1021E000F8BDD046D1E7C046F0B54F464646D64684
:1021F000C0B584B098460EAB1B78129F99469446A2
:102200000D9C109B119EBA0725D4002E69D19C42CB
:1022100000D3C2E001223A4092461F2C00D9BBE015
:102220000C9A551E302201E0202C03D001342A558F
:10223000A342F9D85246002A0DD0B4420BD21F2C2B
:1022400062D80C9A551E302201E0202C5CD001345B
:102250002A55B442F9D1FA0635D57A055DD4002C59
:1022600057D10F9B102B00D17CE00F9B022B00D18C
:102270008DE030230C9A012413704B46002B27D09D
:102280002D230C9A135501340C9B6246009303973F
:10229000434602960194FFF73FFF04B01CBC9046F2
:1022A0009946A246F0BDBB0663D4202CECD00C9B13
:1022B0001A19013478231370202CE5D030220C9B9E
:1022C0001B191A700134202CDED04B46002BD7D1BD
:1022D0007B0735D43B07D7D520230C9A13550134FF
:1022E000D2E7012215003D40AA463A4220D04A4694
:1022F000002A2AD10C323A4227D19C429DD21F2C6F
:1023000000D88DE7202E19D92024FA06BCD57A05ED
:1023100003D4A3421BD0A64219D00F9B102BC2D0CE
:10232000022BC9D1202CAFD00C9B1B19013440E0EB
:102330009C4200D38FE71F2C00D871E720248AE746
:102340002B230C9A135501349EE7013ED5E7631EFB
:10235000012C00D185E70F9A102A20D0022A25D01F
:102360001C00ABE7BB060DD478230C9A0124137034
:10237000A4E7202C00D187E758220C9B1B191A7068
:10238000013499E758230C9A0124137096E70C9AAC
:1023900060330124137091E7202400265BE7023CA0
:1023A000BA06E9D40C9A12191C0083E70C9A9246DB
:1023B000534462221A707FE710B5002800D110BD87
:1023C00002F02AFBFBE7C0460B0010B5002802D044
:1023D00049681B68984710BDF0B5DE4657464E4623
:1023E0004546E0B59BB09A46249B8B469946259B73
:1023F0000B9098460C9243464A464846414601F0A7
:10240000E0FC002800D0A3E1012248464146E24B0F
:10241000524201F0D1FC002800D099E10122484647
:102420004146DE4B524201F0B1FC002800D08FE162
:10243000002200234846414601F0A8FC002800D0B5
:10244000DEE14A4643460A9209938023289ADB003C
:102450001A401192289A1A4201D106232693D04B92
:10246000099F9C467800400D604401F0BDFCCD4AB8
:10247000CD4B01F049FCCD4ACD4B01F033FC3B0381
:10248000CC4A0A9E1B0B1A4304000D0030001100B9
:10249000C94B0022099701F01CFCC84AC84B01F047
:1024A00033FC02000B002000290001F01BFC01F0AE
:1024B000B3FC0D9001F098FCC24AC34B04000D0020
:1024C00001F022FC0022C14B01F00CFC01F0A4FC45
:1024D000BF4A0600BF4B2000290001F015FC040094
:1024E00030000D00109601F07FFCBB4ABB4B01F0A1
:1024F0000BFC02000B002000290001F0EAFB0200A7
:102500000B0006000F0001F0FFFB320004000D007D
:102510003B003000390001F0E5FB00220E900F91E6
:10252000AF4B2000290001F0E6FB0022AD4B01F08B
:10253000D9FB02000B002000290001F0DCFB002287
:10254000A94B01F0CFFB02000B002000290001F095
:10255000D2FB0D008021040032003B000020C905A1
:1025600001F0B7FB02000B002000290001F0BAFBCC
:1025700002000B000E980F9901F0BDFB00228D4B5D
:1025800001F0B0FB109B994A1C0094466444002261
:10259000230501F0B9FB06000F0002000B000A98AA
:1025A000099901F0F3FB00280AD00D9B3000013B94
:1025B00039000D9300228B4B01F09DFB06000F00AC
:1025C0000D9DC6242B0063339C42A441289B64428A
:1025D00004341B051FD5864A864B0A98099901F0D9
:1025E000E3FB002800D1CCE00022834B0A98099934
:1025F00001F0CCFB002800D1C3E0269A954200DA16
:102600000BE1002326938023289ADB001A43002342
:10261000002428920D93279B0025A34200D91D1B5F
:102620000223289A1A401092289A134203D0634238
:1026300063415B421D400D9B002B07D00A9809990E
:1026400032003B0001F057FB0A9009910022002361
:102650004846414601F09AFB002805D0802000063C
:102660008446099961440991289A644B0B9E134052
:102670000493269B0A9A0293099B03950092019367
:102680005946534630000C9A00F0CCF80500002C57
:102690006FD0289B2A0098061F23C01798436B1CF5
:1026A0009846594653466530B0470D9B0026DA17C9
:1026B0009D18DB0F99465540013C01E0202E13D0B8
:1026C0000AAA94461F23280063440A2101369F1951
:1026D00001F0BAF83031397028000A2101F0B4F85D
:1026E0002F000500092FE9D8052306930023049342
:1026F0000A3303934B4601960B9E029312AB009351
:1027000042465346594630000594FFF76DFD109B35
:102710000500002B2DD00C9B279AC41AA24228D961
:1027200081465D4698461700434629001A19202025
:1027300053460134B047A742F6D84D460C99279826
:102740006B1A01330022984261D20135551910E00D
:10275000289B4A460493279B59460393269B0B9834
:10276000029343460092019353460C9A00F05AF8A4
:10277000050028001BB03CBC90469946A246AB46DB
:10278000F0BD269B002B00D145E7119B5A1E9341BB
:10279000269AD31A26933EE7FFFFEF7FFFFFEFFF56
:1027A00001FCFFFFFB799F501344D33FB3C8608BFC
:1027B000288AC63F0000F03F0000F83F61436F6386
:1027C000A787D23F71A379094F930A400000E03FE9
:1027D0001655B5BBB16B0240EF39FAFE422EE63F0B
:1027E00000002C400000244000001840FF030000BF
:1027F0002D431CEBE2361A3F80842E41FFF7FFFF8A
:102800004B460A9380231B06434409931DE60A00A6
:102810008446013A6244521B97E7501B431E26939D
:10282000F1E6C046F0B54E46DE4657464546E0B5B1
:1028300097B09946209E219F229B834698460791F8
:102840000C923B0032003000390001F0BAFA002847
:1028500000D0C1E1012230003900CA4B524201F0E0
:1028600095FA002800D0E0E0012230003900C64B84
:10287000524201F0A1FA002800D0B6E00022300058
:102880003900C24B01F098FA002800D098E00022ED
:1028900030003900BE4B01F079FA002800D08FE0FB
:1028A000002200233000390001F070FA002800D027
:1028B000B0E000230D93249B5B0501D406239846CA
:1028C00008AB9C461722002430234146624404E0B2
:1028D000013413550139202C01D00929F8D8884634
:1028E0003000390001F098FA4346DA00A94B0500A0
:1028F0009B181A685B680892099301F075FA020048
:102900000B003000390001F0E4F9089A099B01F04E
:10291000FBF90A900B9101F0A3FA824601F060FAEC
:1029200002000B000A980B9901F0D3F900229A4B90
:102930000A900B9101F040FA002800D1C0E0012379
:102940009C46E244504601F04BFA02000B00089806
:10295000099901F021FA002802D000239A46013596
:102960004346002B69D008AB17269C460895664461
:10297000554614E001235B4243440A2128009A464D
:1029800000F062FF013430313719397028000A2114
:1029900000F05AFF092D00D8D5E0D0460500202CC4
:1029A000E8D10323249A1340012B00D100E10EABA0
:1029B0009846249B01940393239B029343461EE075
:1029C000249B58460493239B009601970393434608
:1029D0000C9A029307994B46FFF7FEFC17B03CBCDC
:1029E00090469946A246AB46F0BD249B5B070ED4A9
:1029F00003226A4B24990192039123990291009337
:102A000058464B460C9A0799FFF786FBE6E70422E7
:102A1000634BEFE73B0032000020002101F059F941
:102A2000012306000F000D9345E7249B0393239B8E
:102A30000293042301935B4BE1E7280001F0D4F9F2
:102A400002000B003000390001F043F9524B002224
:102A500006000F0001F09AF90EAB984600280AD143
:102A60000022300039004C4B01F0A6F9002802D1B9
:102A7000EB0700D50135202C32D008AA9446172345
:102A8000280063440A2101341E1900F0B1FE3031E0
:102A9000280031700A2100F0ABFE051EEBD10323A4
:102AA000249A1340012B00D191E01F2C00D980E71C
:102AB0000D9B002B3BD02D2342461355013478E764
:102AC00000220A980B99344B01F060F9002800D0DD
:102AD00046E75346002B67D101239C46E2443FE77B
:102AE0000323249A1340012B00D062E7239B002B81
:102AF00000D15EE70D9B002B03D1249A0C331342C7
:102B000002D0239B013B2393239B9C42CDD208AB55
:102B10009C461722302362441F2C06D82399013487
:102B200013558C42C1D0202CF8D1202441E7249B9E
:102B30005B0721D4249B1B0700D43AE7202342469D
:102B40001355013435E75746089D202C37D0220015
:102B500030214046002F08D00132B154202A43D002
:102B6000D3431B191B18002BF6D10EAB98462E230E
:102B70004146541C8B547EE72B23424613550134A7
:102B800017E7C046FFFFEFFFFFFFEF7F65CDCD41A9
:102B900065CDCDC1F88600100000E03FFC84001038
:102BA000008500100C850010DB0700D4D8E693E701
:102BB000239B002B00D1FAE60EAB98469AE703233D
:102BC000249A1340012B00D0F1E60EAB9846239BCC
:102BD000002B00D169E78DE7249B0393239B02938D
:102BE00003230193064B0AE70323249A202413406E
:102BF000012B00D0DBE6239B2024002BDCD1D6E682
:102C000008850010F0B5DE464E4657464546E0B50D
:102C10009FB01C00289B93460993CF4ACF4B89460F
:102C200008901A60002900D116E2002320789A4605
:102C3000002800D118E226001D004C460AE02A00B8
:102C40006F1C5B46089D2100A8473D000136307887
:102C500000287AD02528F2D110239A46083B9946BD
:102C6000043B9846023B00219C46721C10781600DB
:102C70000300203BDBB2102B03D8B94F9B00FB585D
:102C80009F460300303B092B3CD900230A932A2896
:102C900000D171E0002398462E2847D00300683BFE
:102CA000DBB2122B1FD8AF4A9B00D3589F4601239B
:102CB00001321943DAE7634601321943D6E7434646
:102CC00001321943D2E7534601321943CEE74B464E
:102CD00001321943CAE770786C2800D1BFE2802323
:102CE0005B00194301360300253BDBB2532BA6D80A
:102CF0009D4A9B00D3589F4680235B007078194300
:102D00000136F0E700270300B800C0190136400083
:102D1000C018337830381A00303A0700092AF3D93E
:102D20000A901800002398462E28B7D18023707887
:102D3000DB0019430300303B721C092B00D895E1DE
:102D40002A2800D1A6E11600A8E7A146AA462C0031
:102D5000D34503D801235B425B449A465B46524607
:102D600049460020089DA84720001FB03CBC904663
:102D70009946A246AB46F0BD099B40CB0A96002E71
:102D800003DB50780993561C84E7283801437042CE
:102D90000A9009935078561C7CE7782800D1D4E13A
:102DA000582800D168E26F2800D152E3622800D190
:102DB000D8E110230A009A430B92692801D000F051
:102DC000A2FC0A230C934B0500D4D5E101230B9AF6
:102DD0009A430B92692800D1CEE1642800D1CBE15F
:102DE0000B9A802311009B0019408A461A4200D09A
:102DF00032E3802311005B00194089461A4201D05A
:102E000000F002FC13005B0600D510E30B9B1B06D1
:102E100001D400F06EFC099B04CB1204120C924604
:102E200009935346002B00D064E30B9A1033110032
:102E300099430B91520500D45CE3002399460B9B08
:102E400006930A9B0593434604930C9B039300232C
:102E5000DEE27078682800D107E28023013619434A
:102E600041E780239B007078194301363BE74628F1
:102E700000D174E10722099B0491073393430A9A16
:102E800019000392424602920CC9089800920193DD
:102E900009912A005B462100FFF7C4FC01360500BA
:102EA000D5E6099B1A0008CA9146002B00D105E11E
:102EB000212211438A460EA884461F2161440995A8
:102EC00000220F27A4460D0002E0202A0CD00B00A0
:102ED0003C001C4020003730092C00D80738013254
:102EE000A85419090F2BF0D86446099DF0E08B0710
:102EF00000D4D1E1099B2A0099466B1C98464B46A9
:102F000001CB21009946089F5B46C0B2B8470A9B97
:102F10009C466544012B00D890E2B2465E46474687
:102F2000A846089D3A003300013721002020A84719
:102F30004745F7D1B3464B4656463D000993013607
:102F400085E62A006F1C5B46089D21002520A847C6
:102F500001363D007BE6C046052C001034160020EB
:102F60001485001058850010A4850010099B04CB1F
:102F7000994643460992002B00D097E013789C466F
:102F8000002B00D1B3E302235B425A1C099B9246FB
:102F900018000A9F0B92504402E0834200D169E17D
:102FA0005A780133002AF8D1099A0A979B1A0B9391
:102FB00080230A00DB001A400C92194204D00B9BBC
:102FC000434501D943460B9302231A000A400D9250
:102FD0000B4200D184E16046002823D00C9B002BDB
:102FE00000D124E1A844C246099B57465B1B984682
:102FF000089BB2462A0026005C469B4609E0230057
:103000003100551CD8474346585D002800D13FE1A8
:103010002A009742F3D1A3463D00340056460D9B4B
:10302000002B69D00B9B0A99A846994264D98C461B
:103030006544ED1A089B47469A46B04626005C4612
:103040003A002300013731002020D047AF42F7D1AA
:10305000A346340046464FE0D24B20780893002325
:103060009A46002800D0E6E5002471E643460600B3
:103070000A9F9800C018013240008019167803009A
:1030800030003038303B0928F3D93000984616001C
:103090000A9703E6099B023604CB9046D24340468A
:1030A000D2171040804609933078F7E513789C4694
:1030B000002B00D11AE34346013B66E710220800CB
:1030C00090431132104382460022490500D4F2E6B3
:1030D0005346069308230593434604931023039312
:1030E0000023029316AB019200932A005B46210055
:1030F0000898FFF779F805004B4601360993A6E5D5
:10310000202302009A43472A04D180231B0119433C
:1031100002239843452801D1202319430722099B04
:103120000491073393430A9A19000392424602928C
:103130000CC908980092019309912A005B4621006E
:10314000FFF74AF90136050081E510230C930C23A3
:103150000A009A430B924B0500D43BE636E6202347
:10316000194387E602230C930B910B996428EED147
:103170000B9B5B0500D529E60B9A802311009B0071
:1031800019408A461A4200D0CEE0802311005B002D
:10319000194089461A4200D0DBE113005B0600D5D6
:1031A0001DE10B9B09991B0600D499E208C91BB2CB
:1031B000D8171A18424092B209919246DA0F129229
:1031C000002B09D1802310220B99DB000B40914387
:1031D0000B91002B00D012E10B9A6123920600D5CF
:1031E00041230EA91F228C46DBB262440A3B57469C
:1031F0001395A2464D460C9CB1460D9316000AE06D
:103200003033DBB201357355A74200D21CE1202DCB
:1032100000D119E107002100380000F015FBCBB206
:103220000929EDD90D9A94466344DBB2EAE7099B7C
:103230005F465B1B98460A9BB3469A462600089C4D
:103240002A003B003100A04743460135585D002865
:10325000F6D1534634000A935E46BB46DFE6C023F0
:103260009B00B078194302363DE5C023B07819437E
:10327000023638E50A979BE60C230A009A4314337A
:103280001A4310230B920C934B0500D4A8E59DE53F
:10329000A34634005646C2E60A9A012A00D82EE216
:1032A0006B1E9F18089BB046994626005C462A0074
:1032B0002300013531002020C847BD42F7D1A34685
:1032C00034004646099B3A0001CB210098467D1CFC
:1032D0005B46089FC0B2B847434601360993B6E43F
:1032E0000B9A0A98531C904200D80AE243199B1A81
:1032F0001F00089BB24626005C469B462A0023001E
:10330000013531002020D847BD42F7D10A9BA346A2
:1033100001330B93099B34001B7856469C4660464C
:10332000002800D05AE6E7E60722099B07339343BB
:10333000013294469C4462465F6809921A68FB1702
:103340001093119310981199030053400E930B00A2
:103350007B400F9394460E9A0F9B121A8B410E924C
:103360000F93FB0F6246129300233A439A463DD0D7
:103370000B9A6123920600D541230022DBB20EA9ED
:103380000A3B8C4691460D9343461F326244139587
:1033900015964D460E9E0F9FA14690460C9C149389
:1033A0000FE0C046152100103032D2B2434601353D
:1033B0005A55BA4500D17CE1202D00D17CE10600B0
:1033C0000F00220000233000390000F083FAD2B24F
:1033D000092AE9D90D9B9C466244D2B2E6E7FF2355
:1033E000099904C913401A000991E6E60B9A1033B3
:1033F000110099430B915205BAD5002399460B9BB6
:1034000006930A9B0593434604930C9B0393129BDC
:1034100002934B46019316AB2A00009321005B46B2
:103420000898FEF7E1FE01360500FFF710FCFF22C9
:10343000099B02CB11408A460993F2E44B4645466C
:1034400009930136FFF703FC4E465446A946139DE7
:10345000D5E708230C9387E60722099B073393439C
:10346000013294469C44624609921A685B681000D7
:103470009A4613005246134307D10B9A103311009A
:1034800099430B91520500D5D7E40B9A612392061C
:1034900000D541230022DBB20EA90A3B8C4691469F
:1034A0000D9343461F32624457461295A2464D463D
:1034B0000400B14690460C9E13930DE03032D2B218
:1034C000434601355A550023BB4200D1FDE0202D73
:1034D00000D1FDE004000F0032000023200039007D
:1034E00000F0F8F9D2B2092AE8D90D9B9C46624453
:1034F000D2B2E5E70B9A6123920600D54123DBB2F5
:103500000EA90A3B1F228C460D93230062445446A9
:10351000129517004D469A46B1460C9E08E030338E
:10352000DBB201357B55B4420ED3202D0CD0040004
:103530003100200000F088F9CBB20929EFD90D9AAB
:1035400094466344DBB2ECE74E465446A946129DCE
:1035500075E4099B1A0008CAD91713925A184A40F1
:103560009146DA0F1292002B08D1802310220B997A
:10357000DB000B4091430B91002B2BD10B9A612365
:10358000920600D541230EAA1F279446DBB20A3BC0
:103590000D95674455460993A2464C46B1460C9E8C
:1035A00008E03033DBB201357B55B4420ED3202D19
:1035B0000CD004003100200000F046F9CBB20929FC
:1035C000EFD9099A94466344DBB2ECE74E46544681
:1035D000AA460D9D0B9B2A0006930A9B210005938A
:1035E000434604930C9B08980393129B0136029365
:1035F0005346019316AB00935B46FEF7F5FD139B14
:1036000005000993FFF723FB099B04CB9146129316
:10361000002A08D1802310220B99DB000B40914334
:103620000B91002B2BD10B9A6123920600D54123DD
:103630000EAA1F279446DBB20A3B0D9567445546F8
:103640000993A2464C46B1460C9E08E03033DBB2EB
:1036500001357B55B4420ED3202D0CD0040031002F
:10366000200000F0F1F8CBB20929EFD9099A94466D
:103670006344DBB2ECE74E465446AA460D9D0B9BD5
:103680002A0006930A9B21000593434604930C9B52
:1036900008980393002302935346019316AB0093BB
:1036A0005B46FEF7A1FD129B050009930136FFF76B
:1036B000CEFAB44200D87FE6149B4C460E960F9784
:1036C000A9469846159E139D99E6A64200D8FEE6A7
:1036D000139B4E469846A9465446129DFFF7AFFBF2
:1036E00008C9D8171A184240099166E500230B93C0
:1036F0005EE4099B04CB92460993FFF792FB2F00EF
:10370000E0E50B930BE6063B0C932EE50EB401228D
:1037100010B585B007AC08CC0100009452420448B3
:103720000394FFF76FFA05B010BC08BC03B018474C
:103730000D21001000B585B0039101210290009386
:10374000034813004A4202A9FFF75CFA05B000BD26
:10375000C923001010B5094A0300146884B0002C76
:1037600008D0012200910648524203A9A047012037
:1037700004B010BD01F05EF90020F9E73416002016
:10378000B923001001480421014B1847B002002062
:10379000B5370010142310B50100188804331B88B6
:1037A000984710BD162310B50100188802331B88F6
:1037B000984710BDF0B5C64600B5002916D01423B1
:1037C00004000125984618278900461843462168B9
:1037D00018883B88984701C4431E984140420540E1
:1037E000A642F3D1280004BC9046F0BD0125F9E7BC
:1037F000144A936F9B0815D29066D166002905D0B4
:10380000FFE7FFE7FFE7516F106F704704B58021B6
:103810000906C2175140002800D0C84304F07CFDBF
:10382000002104BD936F5B08FDD3F0B5946ED56E97
:10383000576F166FFFF7E0FF9466D56657671667F8
:10384000F0BD0000000000D0134A936F9B0813D214
:1038500010665166002905D0FFE7FFE7FFE7516FCB
:10386000106F704704B5002801D00020C04304F059
:1038700053FD002104BDC046936F5B08FDD3F0B536
:10388000946ED56E576F166FFFF7E2FF9466D5669C
:1038900057671667F0BD0000000000D094464E4AFE
:1038A000926F9208624601D230E0C046F0B54A4EAF
:1038B000B56F6D08FCD3346E756E776F366F00F0A0
:1038C00025F89446444A146655665767166762465B
:1038D000F0BDC0469446404A926F9208624601D2BB
:1038E00058E0C046F0B53C4EB56F6D08FCD3346E61
:1038F000756E776F366F00F04DF89446364A146651
:103900005566576716676246F0BDC046002B24DB3C
:1039100011D000293EDA00B5C943404200D101313F
:1039200000F038F8C943404200D10131DB43524234
:1039300000D1013300BD002AEBD1002801D10029BC
:1039400005D00020C90FC90701D1C043410800B507
:1039500004F0DAFC0022002300BD00B500290ADBD8
:10396000DB43524200D1013300F014F8C943404216
:1039700000D1013100BDC943404200D10131DB43D8
:10398000524200D1013300F005F8DB43524200D12E
:10399000013300BD002923D1002B18D1002A0CD0FF
:1039A000BC460D4F38667A6600210023FFE7FFE72B
:1039B000FFE77A6F386F67467047002801D00748E5
:1039C000010000B504F0A0FC0022002300BD0200AD
:1039D0000B00002000217047000000D0FFFFFFFF18
:1039E000002B00D0BDE0130C26D1002AE7D080B414
:1039F000104F39667A66FFE7FFE730B4040C7B6F3F
:103A0000396F1B0423433B66FFE7FFE7FFE7C04630
:103A100084B27B6F3D6F1B0423433B66FFE7FFE7E8
:103A2000C04600232C042D0C7A6F386F00196941B1
:103A3000B0BC7047000000D0F0B594460025140ECD
:103A400001D112020835140F01D112010435940F6F
:103A500001D192000235D40F01D152000135D40BAF
:103A60000134254F7C66254C3C660E0C93B2FFE773
:103A7000FFE7FFE73C6F6643360C7703BE467343B0
:103A8000DF0B5B04C01AB941130C7343DB18C91A6E
:103A9000CE086643360CB64493B273431F0F1B0126
:103AA000C01AB941130C73431F0B1B05C01AB9414F
:103AB000860D8F023E436643360C092D24DB520AE5
:103AC0007243801A7703460A6643360C16235B1B43
:103AD000DE40DF40BF1964466643821B70460435F2
:103AE00006330100D940A840C01900D30131A242D9
:103AF00006D20023F0BD0000000000D0FFFFFFFF52
:103B0000121B0130F3D3F1E709277F1BFE40644607
:103B1000A2B27243801A00D20139220C7243130CF4
:103B20001204821A99410B007046043513370100C4
:103B3000F940A840801900D30131002B02D1A242E4
:103B40000AD2F0BD013000D30131121BFAD2013B81
:103B5000F8D1A24200D2F0BD013000D30131121BD6
:103B6000F7E7F0B51C0C00D080E00CB400251C0A6F
:103B700004D11B02160E3343120208351C0B04D16C
:103B80001B01160F3343120104359C0B04D19B001B
:103B9000960F334392000235DC0B02D192185B4141
:103BA00001351C00971864410134464F7C66464C31
:103BB0003C660E0CFFE7FFE7FFE7C0463C6F66433D
:103BC000360C7703BE4697B27743C01B00D201394B
:103BD000C01B00D201399FB27743C91BC91B170C08
:103BE00077437E04FF0B801BB941CE086643360C39
:103BF0000C2D33DBB644120B1F053A431B0B97B257
:103C00007743C01B00D201399FB27743C91B170C01
:103C100077433E043F0C801BB941860D8F023E4323
:103C2000664329277F1BFE400C3D7746AF40BF19F6
:103C300030BCA2B2ABB272437343801A9941220CDA
:103C40007243130C1204801A994102000B000137D1
:103C5000001BA941F9D2781E0021F0BD0C277F1B63
:103C6000FE4077467F0BAF40FF19E0E700245D1C64
:103C700007D0144F7D663966FFE7FFE7FFE7FFE7F0
:103C80003C6F95B29EB265436643401BB141150C33
:103C90001E0C6543664336042F0C3E432D04401B27
:103CA000B141994204D202000B0020000021F0BD76
:103CB00001D19042F7D3801A994101349942F2D34D
:103CC000F6E70000000000D0FFFFFFFF4840414042
:103CD000484018B4114B5B68FC46019308BD04DFF3
:103CE000C73F001018B40D4B1B68FC46019308BD7C
:103CF00000DFD13F001018B4084BDB68FC4601938D
:103D000008BD0CDF8942001018B4044B9B68FC46C8
:103D1000019308BD08DF2D41001000008C16002023
:103D2000FFB550404240504059404B40594000E0A0
:103D3000FFB5154F4C00640D03D0BC4204D10C03F9
:103D400014D80020090D09055C00640D03D0BC42A5
:103D500004D11C030AD800221B0D1B0501264B4071
:103D600009D44B4003D58B4200D18242FFBD99421A
:103D7000FCD19042FFBD0B43DB1803431343F5D046
:103D8000C9434918FFBD0000FF07000000B5FFF759
:103D9000CFFF804100BDC04600B5FFF7C9FF01D984
:103DA000002000BD012000BD00B5FFF7B9FF01D91B
:103DB000002000BD012000BD00B5FFF7B1FF80412C
:103DC00000BD012040054A00121804D85A001218FC
:103DD00001D8002070470120704700207047000084
:103DE0000021002805D17047C1174840401AFAD079
:103DF000C90713B5064B1B6898470CBC441CA2406E
:103E00001005120B0349091B09051943114310BD85
:103E10008C1800201F04000010B54C00620D802398
:103E2000D218DB00D21A5B057E2A10DD9E3A13DA27
:103E3000CC170903490819435242D14064000134A8
:103E40001532202A05DAD0400843604310BD002017
:103E500010BD0846604310BDC80FC018013810BD22
:103E600018B4044B5B6AFC46019308BD24DFB544DB
:103E7000001000008C16002018B4044BDB6FFC46C9
:103E8000019308BD7CDF3145001000008C16002036
:103E9000132370B51D78012D10D00BDD2448FFF7DA
:103EA00081FC244C01008022200000F0B1FC022D96
:103EB00001D070BD1F4C204AA264FAE72E001D4CB1
:103EC0001D4AA3085B421E401D422FD033002260D2
:103ED0002020B1006118801B0A604A608A60CA60B5
:103EE0000A614A618A61CA610A624A628A62CA6276
:103EF0000A634A638A63CA630A644A648A64CA6456
:103F00000A654A658A65CA650A664A668A66CA6635
:103F10000A674A674008102803D18A67CA67A26403
:103F2000C7E71E339B00E250A264C2E70023CFE73D
:103F3000534400008C160020953F00104B000A00EF
:103F400013495B0D70B506005B181AD43421CB1AE7
:103F5000002B0DDD54395C180DD40125A540290036
:103F600001249C402000002544428D4126402A40E7
:103F70003000110070BD20240125E41AE54029001D
:103F8000EEE70020D20FD10706000A00F0E7C04696
:103F900001FCFFFF07B5604601880A0A0230DF2AEC
:103FA000FAD1C9B2820804D30288408800041043C1
:103FB00000E00068014A5050039007BD8C160020B5
:103FC0000FB403BC0CBCF0B50124E407634000E06F
:103FD000F0B50C0DCF0F661E3605891B640503D3A3
:103FE000C943404200D30131640D03D0661CF60A78
:103FF00007D0E41B00207F00791C89078912803CD0
:1040000024031D0DDF0F6E1E36059B1B6D0503D3AC
:10401000DB43524200D301336D0D03D06E1CF60A10
:1040200007D0ED1B00227F007B1C9B079B12803D6D
:104030002D032F1B661B58D4A446202E46DA2037AA
:104040001400BC401D00BD40F24033412A4380189B
:104050005941CB0F05D0C943C043002264425041AF
:10406000514162464D0D28D10D0D07D100281FD0BA
:10407000241940414941013A0D0DF9D0640006D39D
:10408000013000D30131002C01D140084000013A39
:104090000BD4941CE40A04D112051144DB07194423
:1040A000F0BDD907204B194300E0D9070020F0BD2F
:1040B0000029DDD1002CDBD1F0BD0132C60740085C
:1040C000CD0728434908002EE1D0D9E73C2E29DA54
:1040D000203E40371400BC4000D00124F24014437D
:1040E0001A00BB401C43D317ACE7AC46202F08DABC
:1040F00020360400B4400D00B540F8403941284353
:10410000A5E73C2F0CDA203F40360400B44000D035
:104110000124F84004430800B1400C43C117EAE70A
:1041200010001900002494E70000F07FF0B50C0D9A
:10413000661E3605891BE60A6405640D02D0651CFF
:10414000ED0A04D0002001210905803C2403A44687
:104150001C0D671E3F05DB1BE70A6405640D02D0DA
:10416000651CED0A04D0002201231B05803C2403BA
:104170007740644497B484B296B27443070C7E438C
:10418000150C6F4380B26843361802D30120000437
:104190003F183004350C00197D41844688B29AB22C
:1041A00050430C0C62431F0C7C438EB27E43921929
:1041B00002D301263604A4191604170C36186741D9
:1041C00001BC81B29AB25143040C62431B0C5C43A4
:1041D00080B25843121802D301200004241810049E
:1041E000130C401863412D185E410020474106BC66
:1041F00088B293B258430C0C6343120C544389B2F7
:1042000051435B1802D301210904641819041A0CE4
:10421000091862416D1856410020474118BCF90247
:10422000720D1143F0026A0D1043ED020A0D03D125
:104230006D1940414941013B124E9B1B7600B34230
:104240000ED26D0007D3013000267141664635431A
:1042500001D1400840001B05C918E4072144F0BD06
:104260000BDA013306D1013004D101314F0D01D0F9
:104270004908F2E7E1070020F0BD013631050020D2
:10428000EBE70000FF030000F0B51C0D671E3F05C3
:10429000DB1BE70A6405640D02D0661CF60A04D035
:1042A000002201231B05803C2403D0252D06002677
:1042B000F6432E661E096E66CE0FF619B446490007
:1042C0004F0D02D07E1CF60A03D000200021403F93
:1042D0003F033E1BB600B444013F7F05C91B49089C
:1042E0002E6F013676089C02950D25437543ED131C
:1042F0007543AD1301356D10F603761B0CB4CC027B
:10430000450D2C43A2B2B3B25A43270C7B43350C64
:104310006F43A4B26C431B1902D3012424043F1938
:104320001C041D0CA4187D4124196D41009A91B202
:10433000ACB26143170C7C432B0C5F4392B25A43DF
:10434000A41802D301221204BF182204230C52180D
:104350007B41019C6C431B19520ED9010A43440155
:10436000A01A81B2B2B2514303145A43360C7343BC
:1043700087B27743D617D21900277E4136049B199E
:104380001704160C7F185E417316ED18F301002612
:1043900080337541A90F06D16400690AE8055B0AFC
:1043A000184309D22FE00422944480337541A90AAE
:1043B000A8059B0A184326D3404149412404009A8A
:1043C000019B0D005543641B4343E41A95B286B22A
:1043D0007543170C7E43030C5F4392B25A43B618E1
:1043E00002D301221204BF183204330C52197B414C
:1043F00052429C41002C02D400220130514140081D
:10440000CA071043490802B06246D7079210084B0A
:10441000D218084B9A4203D212058918C919F0BD67
:104420000020002A01DC3900F0BD01331905F5E751
:10443000FD030000FE070000624618CA94460029EA
:104440001ADAC01861415B463B415C46B4405246B3
:10445000FA40224344464D4662416B41904699469C
:104460002B46B3403D41FC401C4352465B46A241B3
:10447000AB4192469B467047C01AA1414B463B4117
:104480004C46B4404246FA40224354465D4662419F
:104490006B4192469B462B46B3403D41FC401C433A
:1044A00042464B46A241AB41904699467047002098
:1044B00000217047002200B5203200F004F8080007
:1044C00000BD000000220B15F1D410B5944600F099
:1044D0005DF81414013400DA0021CB17134C204787
:1044E0006244343A0CD40C2A07DA0400914090401C
:1044F00052422032D440214310BDD843D94310BD8D
:10450000203207D40C469440524220321141D04010
:10451000204310BD0800C917203203D45242203274
:10452000104110BD1800190010BD0000E14400103A
:104530004A00520D144BD21A13DDFF2A1EDAD2059F
:10454000CB0FDB071A43C300400F0903490A084396
:1045500010435B0001D301D0013070474308FBD208
:10456000704702D0C80FC00770470A031213013208
:10457000F8D1420F072AF5D1012200E0FF22C80F2F
:1045800000028018C0057047800300000A0DCC0FA0
:10459000531E1B05C91A520503D3C943404200D319
:1045A0000131520D03D0531CDB0A07D0121B00202F
:1045B0006400611C89078912803A1203014BD21AE8
:1045C00070470000FF03000051434343C9188C4665
:1045D000110C83B24B4310B4040C614392B280B20D
:1045E000504362431C041B0C001910BC59411304B6
:1045F000120CC018514161447047000048404140CE
:104600004840064B5B681847044B1B681847034B30
:10461000DB681847014B9B68184700008C17002087
:1046200007B548404140484001E0C04607B5420058
:10463000120E03D0FF2A03D1420218D8C00DC005C4
:104640004A00120E03D0FF2A03D14A020FD8C90D27
:10465000C9050122414005D4414001D5814207BD31
:10466000884207BD0143491801D0C043001807BD67
:1046700000B5FFF7DBFF804100BDC04600B5FFF786
:10468000CFFF804100BD491A002807D10846704776
:10469000C10FC90700D54042002817D0F44603B423
:1046A0000B4B1B68984706BC81409E3840428031C6
:1046B00007D20B0607D04900490AC005104308433A
:1046C00060470130F8E7490A8902F5E770470000C2
:1046D0008C180020034BDB6FFC4618477CDFB54786
:1046E000001000008C170020132310B512481C780E
:1046F000FFF758F80100012C0AD003DD80220F4893
:1047000000F086F80E48FFF745F80E4B186010BD14
:104710000A4C5422200000F07BF80B4B6365A36524
:10472000E36523666366A366E36623676367A3673F
:10473000E3672362E361E5E7534600008C1700203E
:104740004C3300008C1800208947001043001B0EDA
:104750007F3B5A1C0FDB5A1C10D01722D21A002A9A
:1047600008DD16210122C91A02238A408B40121843
:10477000584210407047C00FC007FBE7FE23C00F30
:10478000C0079B051843F5E707B5604601880A0A8C
:104790000230DF2AFAD1C9B2820804D302884088E5
:1047A0000004104300E00068014A5050039007BD28
:1047B0008C170020C30FDB0741000A0E07D0FF2A29
:1047C00008D00909054A891819434007704719009C
:1047D000002070470249C918FAE7000000000038BD
:1047E0000000F07F10B502F0B7FB10BD10B502F06D
:1047F00079FB10BD01480421014B1847C00200207D
:10480000B5370010014B1B6818470000C00200209C
:10481000014B5B6818470000C0020020F8B547460E
:10482000CE460D0080B516000700002A20DD4B1E85
:1048300098461A4B002400209946002C2BD0434662
:104840001B5D0D3B5A425341DBB22A5D0A2A13D04D
:104850000134A642F1DC864203DD311A3B68281898
:104860009847AD19013D2B780D3B5A4253413B749B
:104870000CBC90469946F8BD002BE9D1A04203DA62
:10488000211A3B6828189847484602213B680134A2
:1048900098472000DDE73B7CD7E7C0468C870010B7
:1048A000F8B54746CE460C00096880B50700802958
:1048B00007D04B1C2360641827710CBC90469946A6
:1048C000F8BD134B1D68002D1BD0124B9846231DBD
:1048D000994602E0ED68002D13D02E68002EF9D025
:1048E00043461B68002B01D09D42F3D16B7C2268AC
:1048F000002B09D028004946FFF790FFED68002DF6
:10490000EBD101230021D5E711004846B047E1E78C
:10491000A80F0020AC0F0020F0B557464546DE46F4
:104920004E46D023E0B51B061C68374B83B007000A
:104930000D00180001A990469A4603F0F5FC814647
:10494000002807D1019B9C4204D0504603F0FCFC98
:10495000012399466B1C03D1380002F0EBFF0500E0
:104960002A4B1C68002C2FD00A23294E9B4602E0BC
:10497000E468002C28D02268002AF9D03368002B84
:1049800001D0A342F4D1637C002B2AD02A00390045
:104990002000FFF743FF4346002BE9D06B465A4601
:1049A0001A71637C002B20D0237C002B26D00121A0
:1049B000236801A898476B461B790D3B5A42534127
:1049C0002374E468002CD6D14B46002B12D1681E0C
:1049D0008541E8B203B03CBC90469946A246AB463E
:1049E000F0BD290038009047D5E70121236801A8D0
:1049F0009847BDE7504603F07FFCE8E702210548F1
:104A000023689847D7E7C046580B0020A80F00201E
:104A1000AC0F00208C87001010B582B06B460400EC
:104A20000022D81D01210470FFF776FF200002B09C
:104A300010BDC04670B5040002F07CFF01220100E9
:104A400005002000FFF768FF084B1C68002C06D00B
:104A50006368002B05D09847E468002CF8D1280043
:104A600070BDE468002CF3D1F9E7C046A80F002020
:104A7000F0B5CE46474680B50D00160083B000283D
:104A80002CD11B4B1B4F1A685B68019200931A4B89
:104A900099461A4B98464B461C68002C03D115E0EA
:104AA000E468002C12D043461B68002B01D0A342BF
:104AB000F6D1A368002BF3D03100280098470028D6
:104AC000EEDD03B00CBC90469946F0BD7B6A009ABF
:104AD0009A42E0D8BA6A01998A4202D30120404240
:104AE000EFE7009A9A42D6D001204042E9E7C0465B
:104AF000B084001000400540A80F0020AC0F00203B
:104B000010B50B001400012806D100222100180066
:104B1000FFF702FF200010BD01204042FBE7C04626
:104B20000D4A1368002B13D0834202D109E098424A
:104B300008D01A00DB68002BF9D1002900D0D06022
:104B400070471A000029FBD1DB68D360C160F7E72A
:104B50000029F5D01060F3E7A80F0020F0B5464615
:104B6000D6464F46D023C0B51B061F68314BA2B0B6
:104B700004000D00180001A9984603F0D5FB061E9D
:104B800006D1019B9F4203D0404603F0DDFB013676
:104B90008422002101A8FFF735FE2B0022002648C1
:104BA00001A9FEF7C7FD019B0700002B15D1234B80
:104BB0001C68002C06D06368002B0CD09847E46872
:104BC000002CF8D1002E2FD1380022B01CBC90460A
:104BD0009946A246F0BDE468EBE7184B1D689A467B
:104BE000002D25D0164B994602E0ED68002D13D01C
:104BF0002C68002CF9D04B461B68002B01D09D423D
:104C0000F3D16B7C019A002B0AD0280002A9FFF790
:104C100005FEED68002DEBD1534601951C68C8E7F1
:104C2000110002A8A047E0E7404603F065FBCBE790
:104C30000195C7E7580B0020A1480010A80F0020DD
:104C4000AC0F00200FB400B583B004A901C90191D5
:104C5000FFF784FF03B008BC04B0184710B500F09C
:104C6000C5F810BD70B5184C82B006000D002000CC
:104C700001A903F059FB002808D1D0231B061B68AB
:104C8000019A9A421CD0200003F05EFB002001F044
:104C90009DFB002807D103256D42200003F02CFB6B
:104CA000280002B070BD002001F0AAFB0028F2D05D
:104CB0002A003100002001F0B3FB051EEBD0ECE729
:104CC00003256D42ECE7C0464C160020F0B54F4678
:104CD000D6464646C0B5354B82B007000D001800D9
:104CE00001A9994603F020FB002808D1D0231B0618
:104CF0001B68019A9A4252D0484603F025FB0020D7
:104D000001F064FB002842D00024002D44DD284B34
:104D10009A46984611E03919002001F00DFC060072
:104D200000F0C8FC002001F0B5FBFCF7D1FA4346C7
:104D300018605960A419AC422EDA002001F018FC6A
:104D40002E1B0200B04200DD3200002AE3D100F049
:104D5000B1FC002001F09EFB002001F037FB002891
:104D60001AD0002001F004FC0028E4D1FCF7B0FACE
:104D700053460E001A685B68002184460D481218DD
:104D80004B419E4208D8D6D19445D4D904E00020A6
:104D90000021074B18605960484603F0ADFA02B095
:104DA0001CBC90469946A246F0BDC0464C16002059
:104DB000780B002020A107001F2010B5FDF710F888
:104DC000FA200021800010BD10B5074C0021200002
:104DD00003F0AAFA002800D110BD00F06BFC2000FF
:104DE00003F08AFAF8E7C0464C16002070B51E4B57
:104DF00084B01B7801F0C0FD1F201C49FDF700F8AE
:104E000001211F20FCF7DAFF1948FCF74BFBFCF7E8
:104E100069F80600FCF75CFAFA2204000D00002392
:104E2000920012196B41994214D811D001210291BC
:104E3000002101910F4930000091FCF759F804005E
:104E4000631E9C41E4B2002808D1200004B070BD6C
:104E50009042EBD901225242D317E7E701210648DD
:104E6000FFF75EFEF1E7C04610930010C94D001039
:104E70004C160020B94D0010D002002000487047A9
:104E80003088001000487047E487001010B50028F3
:104E900006D1124B12484380063BFF3B038010BDF6
:104EA000042818D80F4B8000C4580D480023811CDB
:104EB00004E001330A800231132B09D0E25C002A9E
:104EC000F7D1C02201335B00920013439BB2E5E7A8
:104ED000CA239B00E2E70020E1E7C0460904000086
:104EE000800F002044880010F0B5982357464546AF
:104EF000DE464E46414AE0B5D75880243D0085B095
:104F00006402883B25400393274214D001213920B5
:104F100000223B4B25001954597147315A541A75D8
:104F200000200132374901F03BF88022364B9202D3
:104F30001A65364B0393FB060CD480235B011F429A
:104F40003AD1BD4254D105B03CBC90469946A246E8
:104F5000AB46F0BD294B9A6D002A28D09A462A4BC1
:104F6000B946002601259B46170003E06D00013677
:104F7000202E1BD02F42F9D05346DB6D5B466824B0
:104F800001229D6573085C4334239046B24353432A
:104F9000E4181B4B9C466444200000F03DFA0028B6
:104FA0001AD1AF4301366D00002FE1D14F46802367
:104FB0005B01039D1F42C4D00022154900200A70E6
:104FC0000E491D430A600132012100F079FF802261
:104FD0000D4B12031A65B4E74346E26921790020BC
:104FE0000093002301F004F8200000F0E1F9D8E775
:104FF000290008487940FCF707FDC0460000115021
:10500000B40F0020000010500030115010000100BB
:10501000661600205888001010B501210520FCF705
:10502000CDFE10BD094B10B50122197039210023A6
:1050300007484254427147328354037500220021CD
:105040003430013300F06EFA10BDC0466616002001
:10505000B40F00208022024B5202DA647047C0462F
:105060000020115070B5050000F07AF905201F49A5
:10507000FCF7C6FED0221E4C00212000D200FFF714
:10508000C1FB00231B4A1C4913701C4A40201160BD
:10509000802252006280A280D03AA354184A6370E2
:1050A000E062E260352613600122A2554C36FF36DD
:1050B0002687002620662430265412491248A36011
:1050C00021612270E38620640360E3633433E25499
:1050D0000E4B61641A6480229205DA6490220C49B6
:1050E00028009950FFF7B6FF70BDC046E94E00108A
:1050F000B40F0020661600208001105038160020E2
:105100008400105000011050800010500000115019
:10511000101001000B785B0602D14B78052B09D0EB
:10512000012139200022064B5971195447311A7553
:105130005A547047034B1A78034B1A60F0E7C04685
:10514000B40F002066160020000011500A00F8B5C8
:1051500007234746CE46547910792340D4781B0262
:10516000A40703437F20A20F682480B58978944662
:105170000840914644433422A046CE0972433D4D37
:105180004244AA184FB21171F943C90FD17041427C
:1051900041415670907051716246012A5CD0402B9B
:1051A0005ED834226821724341435218AA18110074
:1051B000644630310C70D362C100002F3CDB2E4CB2
:1051C0000027A4466144D1600F6000283CD02B4CDE
:1051D000C100A44661449160682434224443A4463B
:1051E0007243274F62443968AA181161402B00D2DC
:1051F00040233F22CB18134201D0934340333B60FE
:10520000204B682259404B469C0634230C43A02176
:10521000734342439B18EB189B6809060C431C60C0
:1052200034235E4334335843673B30182B540120FA
:105230000CBC90469946F8BD134C0027A446614427
:10524000D1600F6000280FD1342300227343EB1884
:105250009A600E4A1A61E3E78022D2009342A0D3FB
:1052600019000B48FCF7D0FB064CC100A446614472
:105270009160B1E7B40F002084001050040010507A
:10528000381600200000105080001050000110500F
:105290006C88001010B50C00342011001A00E309CE
:1052A00058437F23234068245C43044B0019C018F3
:1052B000012300F037F9012010BDC046B40F0020D3
:1052C00070B57F25342068230D40CC096B436043C3
:1052D0000C4EC01830188378002B05D143785A4201
:1052E0005341094A0133936680220849120100F0B4
:1052F00069F8342101234C4334314D436419341986
:10530000237570BDB40F002000201150FFF7FFFF80
:1053100070B57F25342068230D40CC096B43604372
:105320000C4EC01830188378002B05D143785A42B0
:105330005341094A013393660022084900F042F8BC
:10534000342100234C4334314D43641934192375FF
:1053500070BDC046B40F002000301150FFF7FFFFB2
:1053600080220E4B520410B51A600D4B0D491A6085
:1053700010008B689843FBD10B4C9C22002120002D
:10538000FFF740FA8022002152010848FFF73AFA5D
:10539000092363670333A36710BDC04600E00040E4
:1053A00000F0004000C0004000001150000010500C
:1053B000002300213222838281548361C36103620E
:1053C0008362704710B5C368002901D01C68214072
:1053D000002A11D08024E400114322420CD01A6824
:1053E00022420BD1094A0A401A60FFE7FFE7FFE7B4
:1053F000FFE7FFE7FFE7C368196010BD4378044A81
:105400009B0081789A580348FCF7FEFAFFFBFFFFE8
:10541000E402002094880010F8B5467D0400002EB8
:1054200000D168E0C368C0781D68AD05AD0D0028E7
:1054300043D1E369E918E161A269551A402D2ED8DC
:105440006B189B1A5F427B412427DBB22562E35530
:105450008A424DD34AD0002823D08022D2002A434A
:105460006179002902D0802080010243012041405F
:105470006171002B02D08023DB011A43E1680B68C5
:105480005B053DD4224B13400B60FFE7FFE7FFE7CE
:10549000FFE7FFE7FFE70020E3681A60F8BD40255B
:1054A000CEE7A36A2A009C4620696144FFF7B0F961
:1054B00084221202E35D2A43D2E7E269A36A94469A
:1054C0006344180021692A00FFF7A2F9E369E07834
:1054D000E918E1610028AFD0236A9D42ACD20023D5
:1054E000012223622433A161E254D7E73000D5E7DB
:1054F0000848FCF789FA8178074A0848FCF784FADB
:105500006378054A9B00A1789A580548FCF77CFA15
:10551000FFFBFFFFE0880010E4020020B4880010C9
:105520009488001070B50400002B49D0437D002BF7
:1055300003D000230375322023540023A261E361CA
:10554000151C402A31D80123ADB2521B637553425A
:105550005341242625220020DBB22562A162A355F7
:10556000A054E278002A22D08022D2002A43617916
:10557000002902D080208001024301204140617156
:10558000002B02D08023DB011A43E1680B685B0526
:1055900019D4114B13400B60FFE7FFE7FFE7FFE76C
:1055A000FFE7FFE7E3681A6070BD4025CBE72A00FC
:1055B0002069FFF72DF984221202A35D2A43D6E762
:1055C000FFF72AFFF0E76378044A9B00A1789A5816
:1055D0000348FCF719FAC046FFFBFFFFE402002076
:1055E00094880010024B5878431E9841C0B270470F
:1055F000000F0020024B18784007C00F7047C046CC
:10560000000F0020F8B5372200212148FFF7FAF8F3
:10561000204C2000FBF746FF1F4B1C601F4C200056
:105620001830FBF74DFF200001F09EFB1C4B1D4E78
:105630001D4D1C60002E04D0280000E000BF1B4B55
:10564000186000242B78002E19D0194E174F9C4259
:105650000FD319D13300984701342B78E4B2A34219
:10566000F5D20020FFF7FEFC0020FFF7D5FC01205B
:10567000F8BDE3003A681B1B9B009B58EBE700F06A
:1056800087FF2B78002BECD000231B68FFDEC04681
:10569000000F0020B80E0020380F0020EC02002080
:1056A0003C0F00200000000064160020D00B0020FA
:1056B00091650010F0B5DE4657464E464546E0B5CA
:1056C0008BB001F069F9002800D122E1B24B07AD9F
:1056D0009A46B24B9B4653461E68B269EFF310835D
:1056E00072B611680029FCD0BFF35F8FF361290007
:1056F000300001F0ADF9B2690400F369BFF35F8FC8
:105700000021116083F31088002800D101E16B783B
:10571000082BE0D85A469B00D3589F466B68002B55
:10572000D9D0A8689847D6E77F2229799C4B0A40B0
:105730005400C8091B191B18180001262030447991
:10574000B443447144790336B4434471002A00D110
:10575000E6E0944ADB7C002A06D0934A1278934212
:1057600000D26DE19B1ADBB2002B00D0D1E08F4C50
:105770006A792878AB68A047ADE7894B012798463E
:1057800042461B7800203B4313702B78994600F06B
:1057900095FD60232E793340602B0DD0402B00D136
:1057A000DAE0F606F60E012E00D154E1022E00D109
:1057B00010E1002E00D1E1E028780021FFF780FD04
:1057C00080212878FFF77CFD85E7794B002B82D07C
:1057D00000E000BF7FE7774B002B00D17BE7704BE9
:1057E00018780007C00F00E000BF74E76E4E6D4AE6
:1057F00000243378002A00D198E06F4FA34208D8E4
:10580000A34200D095E00134E4B2A34200D262E7A3
:10581000F6D93968E2008C46121B92006244926904
:10582000002AF0D02878904701343378E4B2A342BC
:10583000E4D250E73722002159482F78FEF7E2FFE3
:105840001022FF215D48FEF7DDFF55481222FF219F
:105850001330FEF7D7FF00F027FD534E514A0024C6
:105860003378002A00D170E0554A9046524A91465A
:10587000A34245D866D1434638009847013433786F
:10588000E4B2A342F4D24F4B002B00D123E700E057
:1058900000BF20E7424B37229846002118002F789E
:1058A000FEF7B0FF43461022D81CFF21FEF7AAFFE7
:1058B00040461222FF211330FEF7A4FF00F0F4FC53
:1058C000394E384A00243378002A35D03A4A914676
:1058D0009C420CD336D13A4B380098470134337888
:1058E000E4B2A342F4D242462B799370F3E64A46DF
:1058F0001268E30094461B1B9B0063445B68EBE764
:105900004A461268E30094461B1B9B0063445B6895
:10591000B2E70BB03CBC90469946A246AB46F0BD00
:105920006A792878AB6800F0DDFCD4E6002B00D162
:10593000D1E600239B69FFDE380000F065FE337876
:10594000002BD0D000235B68FFDE380000F05CFE47
:105950003378002B97D0F5E71B4B002B00D12BE7BA
:105960001A48002801D000F0A9FC484608A900E028
:1059700000BF0400002C00D0ADE61DE7202B00D1B5
:105980009AE0002B00D017E76B79092B00D913E7B9
:105990000F4A9B00D3589F463C0F00200C890010F3
:1059A000000F00200000000064160020C5670010F2
:1059B0000000000000000000D00B0020030F0020BA
:1059C0000966001000000000000000000000000058
:1059D000308900107F22297A0A400292082A00D9D1
:1059E000EAE6C8090190002B00D182E000245300B0
:1059F0000293019A029B94464344C74A6344DB7C6A
:105A0000002A06D0C54A1278934200D23BE19B1A85
:105A1000DBB2002B00D02DE1C148C24E00F04EFC9D
:105A20004846F36808A99847002800D122E160227F
:105A30002B791A4200D04EE6002000F03FFC4AE6E7
:105A4000DA00D31AB84A9B001268D318002B00D191
:105A50005FE75C698CE62B7A0F2B00D9ACE6AE4A87
:105A60004344DB78002A05D0AC4A127893425ED3D7
:105A70009B1ADBB2002B00D09EE6A948A94C00F08F
:105A80001DFC4846E36808A99847002800D022E694
:105A9000602211002B7919401A4200D08CE66B79F4
:105AA0000A2B00D088E606AB9A1C117001234846E9
:105AB00008A900F09DFB0EE62B7A0F2B00D97BE6A0
:105AC000954A4344DB78002A06D0944A12789342E0
:105AD00000D202E19B1ADBB2002B00D06CE69048AA
